:100000000C9434000C943E000C943E000C943E0082
:100010000C943E000C943E000C943E000C943E0068
:100020000C943E000C943E000C943E000C943E0058
:100030000C943E000C943E000C943E000C943E0048
:100040000C943E000C943E000C943E000C943E0038
:100050000C943E000C943E000C943E000C943E0028
:100060000C943E000C943E0011241FBECFEFD8E04C
:10007000DEBFCDBF0E9440000C946C000C940000C9
:1000800082E084B915B88EEF8093640080E280939B
:100090007C00EAE7F0E0808183688083A9E7B0E034
:1000A00042E0808180648083808186FDFDCF2C9139
:1000B00043B930E0220F331F2115310591F380E061
:1000C00090E0CFECD7E02197F1F700C00000019657
:0C00D00082179307B1F7E5CFF894FFCF3B
:00000001FF
